{
  "_format": "hh-sol-artifact-1",
  "contractName": "ClaimRegistry",
  "sourceName": "contracts/ClaimRegistry.sol",
  "abi": [
    {
      "anonymous": false,
      "inputs": [
        {
          "indexed": true,
          "internalType": "string",
          "name": "claimId",
          "type": "string"
        },
        {
          "indexed": false,
          "internalType": "string",
          "name": "ipfsCid",
          "type": "string"
        },
        {
          "indexed": false,
          "internalType": "uint256",
          "name": "timestamp",
          "type": "uint256"
        }
      ],
      "name": "ClaimCreated",
      "type": "event"
    },
    {
      "anonymous": false,
      "inputs": [
        {
          "indexed": true,
          "internalType": "string",
          "name": "claimId",
          "type": "string"
        },
        {
          "indexed": false,
          "internalType": "string",
          "name": "newStatus",
          "type": "string"
        },
        {
          "indexed": false,
          "internalType": "uint256",
          "name": "timestamp",
          "type": "uint256"
        }
      ],
      "name": "ClaimStatusUpdated",
      "type": "event"
    },
    {
      "inputs": [
        {
          "internalType": "uint256",
          "name": "",
          "type": "uint256"
        }
      ],
      "name": "claimIds",
      "outputs": [
        {
          "internalType": "string",
          "name": "",
          "type": "string"
        }
      ],
      "stateMutability": "view",
      "type": "function"
    },
    {
      "inputs": [
        {
          "internalType": "string",
          "name": "",
          "type": "string"
        }
      ],
      "name": "claims",
      "outputs": [
        {
          "internalType": "string",
          "name": "claimId",
          "type": "string"
        },
        {
          "internalType": "string",
          "name": "ipfsCid",
          "type": "string"
        },
        {
          "internalType": "bool",
          "name": "isFraud",
          "type": "bool"
        },
        {
          "internalType": "string",
          "name": "riskLevel",
          "type": "string"
        },
        {
          "internalType": "uint256",
          "name": "estimatedCost",
          "type": "uint256"
        },
        {
          "internalType": "string",
          "name": "status",
          "type": "string"
        },
        {
          "internalType": "uint256",
          "name": "timestamp",
          "type": "uint256"
        }
      ],
      "stateMutability": "view",
      "type": "function"
    },
    {
      "inputs": [
        {
          "internalType": "string",
          "name": "_claimId",
          "type": "string"
        },
        {
          "internalType": "string",
          "name": "_ipfsCid",
          "type": "string"
        },
        {
          "internalType": "bool",
          "name": "_isFraud",
          "type": "bool"
        },
        {
          "internalType": "string",
          "name": "_riskLevel",
          "type": "string"
        },
        {
          "internalType": "uint256",
          "name": "_estimatedCost",
          "type": "uint256"
        },
        {
          "internalType": "string",
          "name": "_status",
          "type": "string"
        }
      ],
      "name": "createClaim",
      "outputs": [],
      "stateMutability": "nonpayable",
      "type": "function"
    },
    {
      "inputs": [],
      "name": "getAllClaimIds",
      "outputs": [
        {
          "internalType": "string[]",
          "name": "",
          "type": "string[]"
        }
      ],
      "stateMutability": "view",
      "type": "function"
    },
    {
      "inputs": [
        {
          "internalType": "string",
          "name": "_claimId",
          "type": "string"
        }
      ],
      "name": "getClaim",
      "outputs": [
        {
          "components": [
            {
              "internalType": "string",
              "name": "claimId",
              "type": "string"
            },
            {
              "internalType": "string",
              "name": "ipfsCid",
              "type": "string"
            },
            {
              "internalType": "bool",
              "name": "isFraud",
              "type": "bool"
            },
            {
              "internalType": "string",
              "name": "riskLevel",
              "type": "string"
            },
            {
              "internalType": "uint256",
              "name": "estimatedCost",
              "type": "uint256"
            },
            {
              "internalType": "string",
              "name": "status",
              "type": "string"
            },
            {
              "internalType": "uint256",
              "name": "timestamp",
              "type": "uint256"
            }
          ],
          "internalType": "struct ClaimRegistry.Claim",
          "name": "",
          "type": "tuple"
        }
      ],
      "stateMutability": "view",
      "type": "function"
    },
    {
      "inputs": [
        {
          "internalType": "string",
          "name": "_claimId",
          "type": "string"
        },
        {
          "internalType": "bool",
          "name": "_isFraud",
          "type": "bool"
        },
        {
          "internalType": "string",
          "name": "_riskLevel",
          "type": "string"
        },
        {
          "internalType": "uint256",
          "name": "_estimatedCost",
          "type": "uint256"
        }
      ],
      "name": "updateClaimAnalysis",
      "outputs": [],
      "stateMutability": "nonpayable",
      "type": "function"
    },
    {
      "inputs": [
        {
          "internalType": "string",
          "name": "_claimId",
          "type": "string"
        },
        {
          "internalType": "string",
          "name": "_newStatus",
          "type": "string"
        }
      ],
      "name": "updateClaimStatus",
      "outputs": [],
      "stateMutability": "nonpayable",
      "type": "function"
    }
  ],
  "bytecode": "0x608060405234801561001057600080fd5b506118b7806100206000396000f3fe608060405234801561001057600080fd5b506004361061007d5760003560e01c80632bc3a3c11161005b5780632bc3a3c114610100578063a08ff9d314610136578063a17900a114610152578063bd702eee1461016e5761007d565b806325401d8e146100825780632abfd6da146100b25780632bb81546146100d0575b600080fd5b61009c60048036038101906100979190610cd7565b61018a565b6040516100a99190610d94565b60405180910390f35b6100ba610236565b6040516100c79190610ec2565b60405180910390f35b6100ea60048036038101906100e59190611019565b61030f565b6040516100f7919061113d565b60405180910390f35b61011a60048036038101906101159190611019565b61062d565b60405161012d979695949392919061117d565b60405180910390f35b610150600480360381019061014b9190611234565b6108b2565b005b61016c600480360381019061016791906112d3565b610980565b005b610188600480360381019061018391906113d0565b610b5d565b005b6001818154811061019a57600080fd5b9060005260206000200160009150905080546101b590611477565b80601f01602080910402602001604051908101604052809291908181526020018280546101e190611477565b801561022e5780601f106102035761010080835404028352916020019161022e565b820191906000526020600020905b81548152906001019060200180831161021157829003601f168201915b505050505081565b60606001805480602002602001604051908101604052809291908181526020016000905b8282101561030657838290600052602060002001805461027990611477565b80601f01602080910402602001604051908101604052809291908181526020018280546102a590611477565b80156102f25780601f106102c7576101008083540402835291602001916102f2565b820191906000526020600020905b8154815290600101906020018083116102d557829003601f168201915b50505050508152602001906001019061025a565b50505050905090565b610317610c4e565b6000808360405161032891906114e4565b9081526020016040518091039020600001805461034490611477565b905011610386576040517f08c379a000000000000000000000000000000000000000000000000000000000815260040161037d90611547565b60405180910390fd5b60008260405161039691906114e4565b90815260200160405180910390206040518060e00160405290816000820180546103bf90611477565b80601f01602080910402602001604051908101604052809291908181526020018280546103eb90611477565b80156104385780601f1061040d57610100808354040283529160200191610438565b820191906000526020600020905b81548152906001019060200180831161041b57829003601f168201915b5050505050815260200160018201805461045190611477565b80601f016020809104026020016040519081016040528092919081815260200182805461047d90611477565b80156104ca5780601f1061049f576101008083540402835291602001916104ca565b820191906000526020600020905b8154815290600101906020018083116104ad57829003601f168201915b505050505081526020016002820160009054906101000a900460ff161515151581526020016003820180546104fe90611477565b80601f016020809104026020016040519081016040528092919081815260200182805461052a90611477565b80156105775780601f1061054c57610100808354040283529160200191610577565b820191906000526020600020905b81548152906001019060200180831161055a57829003601f168201915b505050505081526020016004820154815260200160058201805461059a90611477565b80601f01602080910402602001604051908101604052809291908181526020018280546105c690611477565b80156106135780601f106105e857610100808354040283529160200191610613565b820191906000526020600020905b8154815290600101906020018083116105f657829003601f168201915b505050505081526020016006820154815250509050919050565b60008180516020810182018051848252602083016020850120818352809550505050505060009150905080600001805461066690611477565b80601f016020809104026020016040519081016040528092919081815260200182805461069290611477565b80156106df5780601f106106b4576101008083540402835291602001916106df565b820191906000526020600020905b8154815290600101906020018083116106c257829003601f168201915b5050505050908060010180546106f490611477565b80601f016020809104026020016040519081016040528092919081815260200182805461072090611477565b801561076d5780601f106107425761010080835404028352916020019161076d565b820191906000526020600020905b81548152906001019060200180831161075057829003601f168201915b5050505050908060020160009054906101000a900460ff169080600301805461079590611477565b80601f01602080910402602001604051908101604052809291908181526020018280546107c190611477565b801561080e5780601f106107e35761010080835404028352916020019161080e565b820191906000526020600020905b8154815290600101906020018083116107f157829003601f168201915b50505050509080600401549080600501805461082990611477565b80601f016020809104026020016040519081016040528092919081815260200182805461085590611477565b80156108a25780601f10610877576101008083540402835291602001916108a2565b820191906000526020600020905b81548152906001019060200180831161088557829003601f168201915b5050505050908060060154905087565b600080856040516108c391906114e4565b908152602001604051809103902060000180546108df90611477565b905011610921576040517f08c379a000000000000000000000000000000000000000000000000000000000815260040161091890611547565b60405180910390fd5b6000808560405161093291906114e4565b90815260200160405180910390209050838160020160006101000a81548160ff0219169083151502179055508281600301908161096f9190611713565b508181600401819055505050505050565b6000808760405161099191906114e4565b908152602001604051809103902060000180546109ad90611477565b9050146109ef576040517f08c379a00000000000000000000000000000000000000000000000000000000081526004016109e690611831565b60405180910390fd5b6040518060e00160405280878152602001868152602001851515815260200184815260200183815260200182815260200142815250600087604051610a3491906114e4565b90815260200160405180910390206000820151816000019081610a579190611713565b506020820151816001019081610a6d9190611713565b5060408201518160020160006101000a81548160ff0219169083151502179055506060820151816003019081610aa39190611713565b506080820151816004015560a0820151816005019081610ac39190611713565b5060c08201518160060155905050600186908060018154018082558091505060019003906000526020600020016000909190919091509081610b059190611713565b5085604051610b1491906114e4565b60405180910390207f9c9b78672da10d563f0c1e58864d94d63318c59f41a974d4bd7f6f3e007f57f88642604051610b4d929190611851565b60405180910390a2505050505050565b60008083604051610b6e91906114e4565b90815260200160405180910390206000018054610b8a90611477565b905011610bcc576040517f08c379a0000000000000000000000000000000000000000000000000000000008152600401610bc390611547565b60405180910390fd5b80600083604051610bdd91906114e4565b90815260200160405180910390206005019081610bfa9190611713565b5081604051610c0991906114e4565b60405180910390207f4d6dcd5b343e7704f241a42f3e1f09c80cd190639549c0b98468233fe4c6d6938242604051610c42929190611851565b60405180910390a25050565b6040518060e001604052806060815260200160608152602001600015158152602001606081526020016000815260200160608152602001600081525090565b6000604051905090565b600080fd5b600080fd5b6000819050919050565b610cb481610ca1565b8114610cbf57600080fd5b50565b600081359050610cd181610cab565b92915050565b600060208284031215610ced57610cec610c97565b5b6000610cfb84828501610cc2565b91505092915050565b600081519050919050565b600082825260208201905092915050565b60005b83811015610d3e578082015181840152602081019050610d23565b60008484015250505050565b6000601f19601f8301169050919050565b6000610d6682610d04565b610d708185610d0f565b9350610d80818560208601610d20565b610d8981610d4a565b840191505092915050565b60006020820190508181036000830152610dae8184610d5b565b905092915050565b600081519050919050565b600082825260208201905092915050565b6000819050602082019050919050565b600082825260208201905092915050565b6000610dfe82610d04565b610e088185610de2565b9350610e18818560208601610d20565b610e2181610d4a565b840191505092915050565b6000610e388383610df3565b905092915050565b6000602082019050919050565b6000610e5882610db6565b610e628185610dc1565b935083602082028501610e7485610dd2565b8060005b85811015610eb05784840389528151610e918582610e2c565b9450610e9c83610e40565b925060208a01995050600181019050610e78565b50829750879550505050505092915050565b60006020820190508181036000830152610edc8184610e4d565b905092915050565b600080fd5b600080fd5b7f4e487b7100000000000000000000000000000000000000000000000000000000600052604160045260246000fd5b610f2682610d4a565b810181811067ffffffffffffffff82111715610f4557610f44610eee565b5b80604052505050565b6000610f58610c8d565b9050610f648282610f1d565b919050565b600067ffffffffffffffff821115610f8457610f83610eee565b5b610f8d82610d4a565b9050602081019050919050565b82818337600083830152505050565b6000610fbc610fb784610f69565b610f4e565b905082815260208101848484011115610fd857610fd7610ee9565b5b610fe3848285610f9a565b509392505050565b600082601f83011261100057610fff610ee4565b5b8135611010848260208601610fa9565b91505092915050565b60006020828403121561102f5761102e610c97565b5b600082013567ffffffffffffffff81111561104d5761104c610c9c565b5b61105984828501610feb565b91505092915050565b60008115159050919050565b61107781611062565b82525050565b61108681610ca1565b82525050565b600060e08301600083015184820360008601526110a98282610df3565b915050602083015184820360208601526110c38282610df3565b91505060408301516110d8604086018261106e565b50606083015184820360608601526110f08282610df3565b9150506080830151611105608086018261107d565b5060a083015184820360a086015261111d8282610df3565b91505060c083015161113260c086018261107d565b508091505092915050565b60006020820190508181036000830152611157818461108c565b905092915050565b61116881611062565b82525050565b61117781610ca1565b82525050565b600060e0820190508181036000830152611197818a610d5b565b905081810360208301526111ab8189610d5b565b90506111ba604083018861115f565b81810360608301526111cc8187610d5b565b90506111db608083018661116e565b81810360a08301526111ed8185610d5b565b90506111fc60c083018461116e565b98975050505050505050565b61121181611062565b811461121c57600080fd5b50565b60008135905061122e81611208565b92915050565b6000806000806080858703121561124e5761124d610c97565b5b600085013567ffffffffffffffff81111561126c5761126b610c9c565b5b61127887828801610feb565b94505060206112898782880161121f565b935050604085013567ffffffffffffffff8111156112aa576112a9610c9c565b5b6112b687828801610feb565b92505060606112c787828801610cc2565b91505092959194509250565b60008060008060008060c087890312156112f0576112ef610c97565b5b600087013567ffffffffffffffff81111561130e5761130d610c9c565b5b61131a89828a01610feb565b965050602087013567ffffffffffffffff81111561133b5761133a610c9c565b5b61134789828a01610feb565b955050604061135889828a0161121f565b945050606087013567ffffffffffffffff81111561137957611378610c9c565b5b61138589828a01610feb565b935050608061139689828a01610cc2565b92505060a087013567ffffffffffffffff8111156113b7576113b6610c9c565b5b6113c389828a01610feb565b9150509295509295509295565b600080604083850312156113e7576113e6610c97565b5b600083013567ffffffffffffffff81111561140557611404610c9c565b5b61141185828601610feb565b925050602083013567ffffffffffffffff81111561143257611431610c9c565b5b61143e85828601610feb565b9150509250929050565b7f4e487b7100000000000000000000000000000000000000000000000000000000600052602260045260246000fd5b6000600282049050600182168061148f57607f821691505b6020821081036114a2576114a1611448565b5b50919050565b600081905092915050565b60006114be82610d04565b6114c881856114a8565b93506114d8818560208601610d20565b80840191505092915050565b60006114f082846114b3565b915081905092915050565b7f436c61696d20646f6573206e6f74206578697374000000000000000000000000600082015250565b6000611531601483610d0f565b915061153c826114fb565b602082019050919050565b6000602082019050818103600083015261156081611524565b9050919050565b60008190508160005260206000209050919050565b60006020601f8301049050919050565b600082821b905092915050565b6000600883026115c97fffffffffffffffffffffffffffffffffffffffffffffffffffffffffffffffff8261158c565b6115d3868361158c565b95508019841693508086168417925050509392505050565b6000819050919050565b600061161061160b61160684610ca1565b6115eb565b610ca1565b9050919050565b6000819050919050565b61162a836115f5565b61163e61163682611617565b848454611599565b825550505050565b600090565b611653611646565b61165e818484611621565b505050565b5b818110156116825761167760008261164b565b600181019050611664565b5050565b601f8211156116c75761169881611567565b6116a18461157c565b810160208510156116b0578190505b6116c46116bc8561157c565b830182611663565b50505b505050565b600082821c905092915050565b60006116ea600019846008026116cc565b1980831691505092915050565b600061170383836116d9565b9150826002028217905092915050565b61171c82610d04565b67ffffffffffffffff81111561173557611734610eee565b5b61173f8254611477565b61174a828285611686565b600060209050601f83116001811461177d576000841561176b578287015190505b61177585826116f7565b8655506117dd565b601f19841661178b86611567565b60005b828110156117b35784890151825560018201915060208501945060208101905061178e565b868310156117d057848901516117cc601f8916826116d9565b8355505b6001600288020188555050505b505050505050565b7f436c61696d20494420616c726561647920657869737473000000000000000000600082015250565b600061181b601783610d0f565b9150611826826117e5565b602082019050919050565b6000602082019050818103600083015261184a8161180e565b9050919050565b6000604082019050818103600083015261186b8185610d5b565b905061187a602083018461116e565b939250505056fea26469706673582212200c52f6c883b60288288aa1731314ae5232a99e6cfa8c169d368324c514a9b0ed64736f6c63430008130033",
  "linkReferences": {},
  "deployedLinkReferences": {}
}